{
  "_format": "hh-sol-artifact-1",
  "contractName": "AntiFraudSystem",
  "sourceName": "contracts/AntiFraudSystem.sol",
  "abi": [
    {
      "inputs": [
        {
          "internalType": "uint256",
          "name": "_initialMaxTxAmount",
          "type": "uint256"
        },
        {
          "internalType": "uint256",
          "name": "_initialMinTime",
          "type": "uint256"
        }
      ],
      "stateMutability": "nonpayable",
      "type": "constructor"
    },
    {
      "inputs": [
        {
          "internalType": "address",
          "name": "owner",
          "type": "address"
        }
      ],
      "name": "OwnableInvalidOwner",
      "type": "error"
    },
    {
      "inputs": [
        {
          "internalType": "address",
          "name": "account",
          "type": "address"
        }
      ],
      "name": "OwnableUnauthorizedAccount",
      "type": "error"
    },
    {
      "anonymous": false,
      "inputs": [
        {
          "indexed": true,
          "internalType": "address",
          "name": "userAddress",
          "type": "address"
        },
        {
          "indexed": false,
          "internalType": "string",
          "name": "reason",
          "type": "string"
        }
      ],
      "name": "AddressBlacklisted",
      "type": "event"
    },
    {
      "anonymous": false,
      "inputs": [
        {
          "indexed": false,
          "internalType": "string",
          "name": "rule",
          "type": "string"
        },
        {
          "indexed": false,
          "internalType": "uint256",
          "name": "newValue",
          "type": "uint256"
        }
      ],
      "name": "FraudRuleChanged",
      "type": "event"
    },
    {
      "anonymous": false,
      "inputs": [
        {
          "indexed": true,
          "internalType": "address",
          "name": "previousOwner",
          "type": "address"
        },
        {
          "indexed": true,
          "internalType": "address",
          "name": "newOwner",
          "type": "address"
        }
      ],
      "name": "OwnershipTransferred",
      "type": "event"
    },
    {
      "anonymous": false,
      "inputs": [
        {
          "indexed": true,
          "internalType": "uint256",
          "name": "id",
          "type": "uint256"
        },
        {
          "indexed": true,
          "internalType": "address",
          "name": "from",
          "type": "address"
        },
        {
          "indexed": false,
          "internalType": "string",
          "name": "reason",
          "type": "string"
        }
      ],
      "name": "TransactionFlagged",
      "type": "event"
    },
    {
      "anonymous": false,
      "inputs": [
        {
          "indexed": true,
          "internalType": "uint256",
          "name": "id",
          "type": "uint256"
        },
        {
          "indexed": true,
          "internalType": "address",
          "name": "from",
          "type": "address"
        },
        {
          "indexed": true,
          "internalType": "address",
          "name": "to",
          "type": "address"
        },
        {
          "indexed": false,
          "internalType": "uint256",
          "name": "amount",
          "type": "uint256"
        }
      ],
      "name": "TransactionMade",
      "type": "event"
    },
    {
      "anonymous": false,
      "inputs": [
        {
          "indexed": true,
          "internalType": "address",
          "name": "userAddress",
          "type": "address"
        },
        {
          "indexed": false,
          "internalType": "string",
          "name": "name",
          "type": "string"
        }
      ],
      "name": "UserRegistered",
      "type": "event"
    },
    {
      "anonymous": false,
      "inputs": [
        {
          "indexed": true,
          "internalType": "address",
          "name": "userAddress",
          "type": "address"
        },
        {
          "indexed": false,
          "internalType": "enum AntiFraudSystem.UserStatus",
          "name": "newStatus",
          "type": "uint8"
        }
      ],
      "name": "UserStatusChanged",
      "type": "event"
    },
    {
      "inputs": [
        {
          "internalType": "address",
          "name": "_userAddress",
          "type": "address"
        },
        {
          "internalType": "string",
          "name": "_reason",
          "type": "string"
        }
      ],
      "name": "blacklistAddress",
      "outputs": [],
      "stateMutability": "nonpayable",
      "type": "function"
    },
    {
      "inputs": [
        {
          "internalType": "address",
          "name": "",
          "type": "address"
        }
      ],
      "name": "blacklistedAddresses",
      "outputs": [
        {
          "internalType": "bool",
          "name": "",
          "type": "bool"
        }
      ],
      "stateMutability": "view",
      "type": "function"
    },
    {
      "inputs": [
        {
          "internalType": "uint256",
          "name": "_id",
          "type": "uint256"
        }
      ],
      "name": "getTransaction",
      "outputs": [
        {
          "components": [
            {
              "internalType": "uint256",
              "name": "id",
              "type": "uint256"
            },
            {
              "internalType": "address",
              "name": "from",
              "type": "address"
            },
            {
              "internalType": "address",
              "name": "to",
              "type": "address"
            },
            {
              "internalType": "uint256",
              "name": "amount",
              "type": "uint256"
            },
            {
              "internalType": "uint256",
              "name": "timestamp",
              "type": "uint256"
            },
            {
              "internalType": "string",
              "name": "status",
              "type": "string"
            }
          ],
          "internalType": "struct AntiFraudSystem.Transaction",
          "name": "",
          "type": "tuple"
        }
      ],
      "stateMutability": "view",
      "type": "function"
    },
    {
      "inputs": [
        {
          "internalType": "address",
          "name": "_userAddress",
          "type": "address"
        }
      ],
      "name": "getUser",
      "outputs": [
        {
          "components": [
            {
              "internalType": "string",
              "name": "name",
              "type": "string"
            },
            {
              "internalType": "uint256",
              "name": "balance",
              "type": "uint256"
            },
            {
              "internalType": "enum AntiFraudSystem.UserStatus",
              "name": "status",
              "type": "uint8"
            }
          ],
          "internalType": "struct AntiFraudSystem.User",
          "name": "",
          "type": "tuple"
        }
      ],
      "stateMutability": "view",
      "type": "function"
    },
    {
      "inputs": [
        {
          "internalType": "address",
          "name": "",
          "type": "address"
        }
      ],
      "name": "lastTransactionTimestamp",
      "outputs": [
        {
          "internalType": "uint256",
          "name": "",
          "type": "uint256"
        }
      ],
      "stateMutability": "view",
      "type": "function"
    },
    {
      "inputs": [
        {
          "internalType": "address",
          "name": "_to",
          "type": "address"
        },
        {
          "internalType": "uint256",
          "name": "_amount",
          "type": "uint256"
        }
      ],
      "name": "makePayment",
      "outputs": [],
      "stateMutability": "nonpayable",
      "type": "function"
    },
    {
      "inputs": [],
      "name": "maxTransactionAmount",
      "outputs": [
        {
          "internalType": "uint256",
          "name": "",
          "type": "uint256"
        }
      ],
      "stateMutability": "view",
      "type": "function"
    },
    {
      "inputs": [],
      "name": "minTimeBetweenTransactions",
      "outputs": [
        {
          "internalType": "uint256",
          "name": "",
          "type": "uint256"
        }
      ],
      "stateMutability": "view",
      "type": "function"
    },
    {
      "inputs": [],
      "name": "owner",
      "outputs": [
        {
          "internalType": "address",
          "name": "",
          "type": "address"
        }
      ],
      "stateMutability": "view",
      "type": "function"
    },
    {
      "inputs": [
        {
          "internalType": "string",
          "name": "_name",
          "type": "string"
        }
      ],
      "name": "registerUser",
      "outputs": [],
      "stateMutability": "nonpayable",
      "type": "function"
    },
    {
      "inputs": [],
      "name": "renounceOwnership",
      "outputs": [],
      "stateMutability": "nonpayable",
      "type": "function"
    },
    {
      "inputs": [
        {
          "internalType": "uint256",
          "name": "_newAmount",
          "type": "uint256"
        }
      ],
      "name": "setMaxTransactionAmount",
      "outputs": [],
      "stateMutability": "nonpayable",
      "type": "function"
    },
    {
      "inputs": [
        {
          "internalType": "uint256",
          "name": "_newTime",
          "type": "uint256"
        }
      ],
      "name": "setMinTimeBetweenTransactions",
      "outputs": [],
      "stateMutability": "nonpayable",
      "type": "function"
    },
    {
      "inputs": [
        {
          "internalType": "address",
          "name": "_userAddress",
          "type": "address"
        },
        {
          "internalType": "enum AntiFraudSystem.UserStatus",
          "name": "_newStatus",
          "type": "uint8"
        }
      ],
      "name": "setUserStatus",
      "outputs": [],
      "stateMutability": "nonpayable",
      "type": "function"
    },
    {
      "inputs": [],
      "name": "transactionCounter",
      "outputs": [
        {
          "internalType": "uint256",
          "name": "",
          "type": "uint256"
        }
      ],
      "stateMutability": "view",
      "type": "function"
    },
    {
      "inputs": [
        {
          "internalType": "uint256",
          "name": "",
          "type": "uint256"
        }
      ],
      "name": "transactions",
      "outputs": [
        {
          "internalType": "uint256",
          "name": "id",
          "type": "uint256"
        },
        {
          "internalType": "address",
          "name": "from",
          "type": "address"
        },
        {
          "internalType": "address",
          "name": "to",
          "type": "address"
        },
        {
          "internalType": "uint256",
          "name": "amount",
          "type": "uint256"
        },
        {
          "internalType": "uint256",
          "name": "timestamp",
          "type": "uint256"
        },
        {
          "internalType": "string",
          "name": "status",
          "type": "string"
        }
      ],
      "stateMutability": "view",
      "type": "function"
    },
    {
      "inputs": [
        {
          "internalType": "address",
          "name": "newOwner",
          "type": "address"
        }
      ],
      "name": "transferOwnership",
      "outputs": [],
      "stateMutability": "nonpayable",
      "type": "function"
    },
    {
      "inputs": [
        {
          "internalType": "address",
          "name": "",
          "type": "address"
        }
      ],
      "name": "users",
      "outputs": [
        {
          "internalType": "string",
          "name": "name",
          "type": "string"
        },
        {
          "internalType": "uint256",
          "name": "balance",
          "type": "uint256"
        },
        {
          "internalType": "enum AntiFraudSystem.UserStatus",
          "name": "status",
          "type": "uint8"
        }
      ],
      "stateMutability": "view",
      "type": "function"
    }
  ],
  "bytecode": "0x60806040523480156200001157600080fd5b50604051620032143803806200321483398181016040528101906200003791906200032e565b33600073ffffffffffffffffffffffffffffffffffffffff168173ffffffffffffffffffffffffffffffffffffffff1603620000ad5760006040517f1e4fbdf7000000000000000000000000000000000000000000000000000000008152600401620000a49190620003ba565b60405180910390fd5b620000be816200022a60201b60201c565b50816005819055508060068190555060405180606001604052806040518060400160405280600581526020017f41646d696e000000000000000000000000000000000000000000000000000000815250815260200169d3c21bcecceda10000008152602001600160028111156200013a5762000139620003d7565b5b815250600260003373ffffffffffffffffffffffffffffffffffffffff1673ffffffffffffffffffffffffffffffffffffffff168152602001908152602001600020600082015181600001908162000193919062000676565b506020820151816001015560408201518160020160006101000a81548160ff02191690836002811115620001cc57620001cb620003d7565b5b02179055509050503373ffffffffffffffffffffffffffffffffffffffff167f48cac28ad4dc618e15f4c2dd5e97751182f166de97b25618318b2112aa951a2f6040516200021a90620007be565b60405180910390a25050620007e0565b60008060009054906101000a900473ffffffffffffffffffffffffffffffffffffffff169050816000806101000a81548173ffffffffffffffffffffffffffffffffffffffff021916908373ffffffffffffffffffffffffffffffffffffffff1602179055508173ffffffffffffffffffffffffffffffffffffffff168173ffffffffffffffffffffffffffffffffffffffff167f8be0079c531659141344cd1fd0a4f28419497f9722a3daafe3b4186f6b6457e060405160405180910390a35050565b600080fd5b6000819050919050565b6200030881620002f3565b81146200031457600080fd5b50565b6000815190506200032881620002fd565b92915050565b60008060408385031215620003485762000347620002ee565b5b6000620003588582860162000317565b92505060206200036b8582860162000317565b9150509250929050565b600073ffffffffffffffffffffffffffffffffffffffff82169050919050565b6000620003a28262000375565b9050919050565b620003b48162000395565b82525050565b6000602082019050620003d16000830184620003a9565b92915050565b7f4e487b7100000000000000000000000000000000000000000000000000000000600052602160045260246000fd5b600081519050919050565b7f4e487b7100000000000000000000000000000000000000000000000000000000600052604160045260246000fd5b7f4e487b7100000000000000000000000000000000000000000000000000000000600052602260045260246000fd5b600060028204905060018216806200048857607f821691505b6020821081036200049e576200049d62000440565b5b50919050565b60008190508160005260206000209050919050565b60006020601f8301049050919050565b600082821b905092915050565b600060088302620005087fffffffffffffffffffffffffffffffffffffffffffffffffffffffffffffffff82620004c9565b620005148683620004c9565b95508019841693508086168417925050509392505050565b6000819050919050565b600062000557620005516200054b84620002f3565b6200052c565b620002f3565b9050919050565b6000819050919050565b620005738362000536565b6200058b62000582826200055e565b848454620004d6565b825550505050565b600090565b620005a262000593565b620005af81848462000568565b505050565b5b81811015620005d757620005cb60008262000598565b600181019050620005b5565b5050565b601f8211156200062657620005f081620004a4565b620005fb84620004b9565b810160208510156200060b578190505b620006236200061a85620004b9565b830182620005b4565b50505b505050565b600082821c905092915050565b60006200064b600019846008026200062b565b1980831691505092915050565b600062000666838362000638565b9150826002028217905092915050565b620006818262000406565b67ffffffffffffffff8111156200069d576200069c62000411565b5b620006a982546200046f565b620006b6828285620005db565b600060209050601f831160018114620006ee5760008415620006d9578287015190505b620006e5858262000658565b86555062000755565b601f198416620006fe86620004a4565b60005b82811015620007285784890151825560018201915060208501945060208101905062000701565b8683101562000748578489015162000744601f89168262000638565b8355505b6001600288020188555050505b505050505050565b600082825260208201905092915050565b7f41646d696e000000000000000000000000000000000000000000000000000000600082015250565b6000620007a66005836200075d565b9150620007b3826200076e565b602082019050919050565b60006020820190508181036000830152620007d98162000797565b9050919050565b612a2480620007f06000396000f3fe608060405234801561001057600080fd5b50600436106101165760003560e01c806371f8fa04116100a2578063a87430ba11610071578063a87430ba146102d0578063c8c8ebe414610302578063d5749d4214610320578063f2fde38b14610350578063f98cf07c1461036c57610116565b806371f8fa04146102455780638da5cb5b14610261578063920e3c961461027f5780639ace38c21461029b57610116565b806347f5726c116100e957806347f5726c146101a357806356cf37b7146101bf5780636f77926b146101ef578063704f1b941461021f578063715018a61461023b57610116565b80630501866e1461011b57806314e887e8146101395780631e293c101461015757806333ea3dc814610173575b600080fd5b610123610388565b6040516101309190611969565b60405180910390f35b61014161038e565b60405161014e9190611969565b60405180910390f35b610171600480360381019061016c91906119c4565b610394565b005b61018d600480360381019061018891906119c4565b6103dd565b60405161019a9190611b5a565b60405180910390f35b6101bd60048036038101906101b891906119c4565b610566565b005b6101d960048036038101906101d49190611ba8565b6105af565b6040516101e69190611969565b60405180910390f35b61020960048036038101906102049190611ba8565b6105c7565b6040516102169190611c9c565b60405180910390f35b61023960048036038101906102349190611df3565b6106f7565b005b6102436108c7565b005b61025f600480360381019061025a9190611e3c565b6108db565b005b61026961098d565b6040516102769190611ea7565b60405180910390f35b61029960048036038101906102949190611ee7565b6109b6565b005b6102b560048036038101906102b091906119c4565b610b30565b6040516102c796959493929190611f71565b60405180910390f35b6102ea60048036038101906102e59190611ba8565b610c34565b6040516102f993929190611fe8565b60405180910390f35b61030a610cf3565b6040516103179190611969565b60405180910390f35b61033a60048036038101906103359190611ba8565b610cf9565b6040516103479190612041565b60405180910390f35b61036a60048036038101906103659190611ba8565b610d19565b005b6103866004803603810190610381919061205c565b610d9f565b005b60065481565b60015481565b61039c611768565b806005819055507fdb72e3bdcee8aa7fe317c76602b9ea0ca5baa85593a73eb4c1dccf98c35254b7816040516103d291906120e8565b60405180910390a150565b6103e56118bb565b600360008381526020019081526020016000206040518060c0016040529081600082015481526020016001820160009054906101000a900473ffffffffffffffffffffffffffffffffffffffff1673ffffffffffffffffffffffffffffffffffffffff1673ffffffffffffffffffffffffffffffffffffffff1681526020016002820160009054906101000a900473ffffffffffffffffffffffffffffffffffffffff1673ffffffffffffffffffffffffffffffffffffffff1673ffffffffffffffffffffffffffffffffffffffff16815260200160038201548152602001600482015481526020016005820180546104dd90612145565b80601f016020809104026020016040519081016040528092919081815260200182805461050990612145565b80156105565780601f1061052b57610100808354040283529160200191610556565b820191906000526020600020905b81548152906001019060200180831161053957829003601f168201915b5050505050815250509050919050565b61056e611768565b806006819055507fdb72e3bdcee8aa7fe317c76602b9ea0ca5baa85593a73eb4c1dccf98c35254b7816040516105a491906121c2565b60405180910390a150565b60076020528060005260406000206000915090505481565b6105cf61191d565b600260008373ffffffffffffffffffffffffffffffffffffffff1673ffffffffffffffffffffffffffffffffffffffff16815260200190815260200160002060405180606001604052908160008201805461062990612145565b80601f016020809104026020016040519081016040528092919081815260200182805461065590612145565b80156106a25780601f10610677576101008083540402835291602001916106a2565b820191906000526020600020905b81548152906001019060200180831161068557829003601f168201915b50505050508152602001600182015481526020016002820160009054906101000a900460ff1660028111156106da576106d9611bd5565b5b60028111156106ec576106eb611bd5565b5b815250509050919050565b6000600281111561070b5761070a611bd5565b5b600260003373ffffffffffffffffffffffffffffffffffffffff1673ffffffffffffffffffffffffffffffffffffffff16815260200190815260200160002060020160009054906101000a900460ff16600281111561076d5761076c611bd5565b5b146107ad576040517f08c379a00000000000000000000000000000000000000000000000000000000081526004016107a490612262565b60405180910390fd5b6040518060600160405280828152602001683635c9adc5dea000008152602001600160028111156107e1576107e0611bd5565b5b815250600260003373ffffffffffffffffffffffffffffffffffffffff1673ffffffffffffffffffffffffffffffffffffffff1681526020019081526020016000206000820151816000019081610838919061242e565b506020820151816001015560408201518160020160006101000a81548160ff0219169083600281111561086e5761086d611bd5565b5b02179055509050503373ffffffffffffffffffffffffffffffffffffffff167f48cac28ad4dc618e15f4c2dd5e97751182f166de97b25618318b2112aa951a2f826040516108bc9190612500565b60405180910390a250565b6108cf611768565b6108d960006117ef565b565b6108e3611768565b6001600460008473ffffffffffffffffffffffffffffffffffffffff1673ffffffffffffffffffffffffffffffffffffffff16815260200190815260200160002060006101000a81548160ff0219169083151502179055508173ffffffffffffffffffffffffffffffffffffffff167fddbfcbca8a6ec25cc3e99e3a7ddc04420eaa6749c91bffcd405e0c3ecc42d9f4826040516109819190612500565b60405180910390a25050565b60008060009054906101000a900473ffffffffffffffffffffffffffffffffffffffff16905090565b6109be611768565b600060028111156109d2576109d1611bd5565b5b600260008473ffffffffffffffffffffffffffffffffffffffff1673ffffffffffffffffffffffffffffffffffffffff16815260200190815260200160002060020160009054906101000a900460ff166002811115610a3457610a33611bd5565b5b03610a74576040517f08c379a0000000000000000000000000000000000000000000000000000000008152600401610a6b9061256e565b60405180910390fd5b80600260008473ffffffffffffffffffffffffffffffffffffffff1673ffffffffffffffffffffffffffffffffffffffff16815260200190815260200160002060020160006101000a81548160ff02191690836002811115610ad957610ad8611bd5565b5b02179055508173ffffffffffffffffffffffffffffffffffffffff167fb3b609c7a5e504a312603e90d906d1667fd5caff0a840ad07bf5709a3ca1a04582604051610b24919061258e565b60405180910390a25050565b60036020528060005260406000206000915090508060000154908060010160009054906101000a900473ffffffffffffffffffffffffffffffffffffffff16908060020160009054906101000a900473ffffffffffffffffffffffffffffffffffffffff1690806003015490806004015490806005018054610bb190612145565b80601f0160208091040260200160405190810160405280929190818152602001828054610bdd90612145565b8015610c2a5780601f10610bff57610100808354040283529160200191610c2a565b820191906000526020600020905b815481529060010190602001808311610c0d57829003601f168201915b5050505050905086565b6002602052806000526040600020600091509050806000018054610c5790612145565b80601f0160208091040260200160405190810160405280929190818152602001828054610c8390612145565b8015610cd05780601f10610ca557610100808354040283529160200191610cd0565b820191906000526020600020905b815481529060010190602001808311610cb357829003601f168201915b5050505050908060010154908060020160009054906101000a900460ff16905083565b60055481565b60046020528060005260406000206000915054906101000a900460ff1681565b610d21611768565b600073ffffffffffffffffffffffffffffffffffffffff168173ffffffffffffffffffffffffffffffffffffffff1603610d935760006040517f1e4fbdf7000000000000000000000000000000000000000000000000000000008152600401610d8a9190611ea7565b60405180910390fd5b610d9c816117ef565b50565b60016002811115610db357610db2611bd5565b5b600260003373ffffffffffffffffffffffffffffffffffffffff1673ffffffffffffffffffffffffffffffffffffffff16815260200190815260200160002060020160009054906101000a900460ff166002811115610e1557610e14611bd5565b5b14610e55576040517f08c379a0000000000000000000000000000000000000000000000000000000008152600401610e4c906125f5565b60405180910390fd5b60016002811115610e6957610e68611bd5565b5b600260008473ffffffffffffffffffffffffffffffffffffffff1673ffffffffffffffffffffffffffffffffffffffff16815260200190815260200160002060020160009054906101000a900460ff166002811115610ecb57610eca611bd5565b5b14610f0b576040517f08c379a0000000000000000000000000000000000000000000000000000000008152600401610f0290612661565b60405180910390fd5b80600260003373ffffffffffffffffffffffffffffffffffffffff1673ffffffffffffffffffffffffffffffffffffffff168152602001908152602001600020600101541015610f90576040517f08c379a0000000000000000000000000000000000000000000000000000000008152600401610f87906126cd565b60405180910390fd5b600460003373ffffffffffffffffffffffffffffffffffffffff1673ffffffffffffffffffffffffffffffffffffffff16815260200190815260200160002060009054906101000a900460ff161561101d576040517f08c379a000000000000000000000000000000000000000000000000000000000815260040161101490612739565b60405180910390fd5b600460008373ffffffffffffffffffffffffffffffffffffffff1673ffffffffffffffffffffffffffffffffffffffff16815260200190815260200160002060009054906101000a900460ff16156110aa576040517f08c379a00000000000000000000000000000000000000000000000000000000081526004016110a1906127cb565b60405180910390fd5b600160008154809291906110bd9061281a565b91905055506000600154905060055482111561128c576040518060c001604052808281526020013373ffffffffffffffffffffffffffffffffffffffff1681526020018473ffffffffffffffffffffffffffffffffffffffff1681526020018381526020014281526020016040518060400160405280600781526020017f466c616767656400000000000000000000000000000000000000000000000000815250815250600360008381526020019081526020016000206000820151816000015560208201518160010160006101000a81548173ffffffffffffffffffffffffffffffffffffffff021916908373ffffffffffffffffffffffffffffffffffffffff16021790555060408201518160020160006101000a81548173ffffffffffffffffffffffffffffffffffffffff021916908373ffffffffffffffffffffffffffffffffffffffff160217905550606082015181600301556080820151816004015560a0820151816005019081611235919061242e565b509050503373ffffffffffffffffffffffffffffffffffffffff16817f8d8381e4d0bbe80f5ac570be9ee8777b1880557d2e9b1b4711f79f2e86ebedeb60405161127e906128d4565b60405180910390a350611764565b6000600760003373ffffffffffffffffffffffffffffffffffffffff1673ffffffffffffffffffffffffffffffffffffffff16815260200190815260200160002054426112d991906128f4565b905060065481101561149f576040518060c001604052808381526020013373ffffffffffffffffffffffffffffffffffffffff1681526020018573ffffffffffffffffffffffffffffffffffffffff1681526020018481526020014281526020016040518060400160405280600781526020017f466c616767656400000000000000000000000000000000000000000000000000815250815250600360008481526020019081526020016000206000820151816000015560208201518160010160006101000a81548173ffffffffffffffffffffffffffffffffffffffff021916908373ffffffffffffffffffffffffffffffffffffffff16021790555060408201518160020160006101000a81548173ffffffffffffffffffffffffffffffffffffffff021916908373ffffffffffffffffffffffffffffffffffffffff160217905550606082015181600301556080820151816004015560a0820151816005019081611447919061242e565b509050503373ffffffffffffffffffffffffffffffffffffffff16827f8d8381e4d0bbe80f5ac570be9ee8777b1880557d2e9b1b4711f79f2e86ebedeb6040516114909061299a565b60405180910390a35050611764565b82600260003373ffffffffffffffffffffffffffffffffffffffff1673ffffffffffffffffffffffffffffffffffffffff16815260200190815260200160002060010160008282546114f191906128f4565b9250508190555082600260008673ffffffffffffffffffffffffffffffffffffffff1673ffffffffffffffffffffffffffffffffffffffff168152602001908152602001600020600101600082825461154a91906129ba565b9250508190555042600760003373ffffffffffffffffffffffffffffffffffffffff1673ffffffffffffffffffffffffffffffffffffffff168152602001908152602001600020819055506040518060c001604052808381526020013373ffffffffffffffffffffffffffffffffffffffff1681526020018573ffffffffffffffffffffffffffffffffffffffff1681526020018481526020014281526020016040518060400160405280600981526020017f436f6d706c657465640000000000000000000000000000000000000000000000815250815250600360008481526020019081526020016000206000820151816000015560208201518160010160006101000a81548173ffffffffffffffffffffffffffffffffffffffff021916908373ffffffffffffffffffffffffffffffffffffffff16021790555060408201518160020160006101000a81548173ffffffffffffffffffffffffffffffffffffffff021916908373ffffffffffffffffffffffffffffffffffffffff160217905550606082015181600301556080820151816004015560a08201518160050190816116f7919061242e565b509050508373ffffffffffffffffffffffffffffffffffffffff163373ffffffffffffffffffffffffffffffffffffffff16837ff6a481d9b8653cca229a5f91f90f04ef416916c2f6b30a5f542070c835d2df80866040516117599190611969565b60405180910390a450505b5050565b6117706118b3565b73ffffffffffffffffffffffffffffffffffffffff1661178e61098d565b73ffffffffffffffffffffffffffffffffffffffff16146117ed576117b16118b3565b6040517f118cdaa70000000000000000000000000000000000000000000000000000000081526004016117e49190611ea7565b60405180910390fd5b565b60008060009054906101000a900473ffffffffffffffffffffffffffffffffffffffff169050816000806101000a81548173ffffffffffffffffffffffffffffffffffffffff021916908373ffffffffffffffffffffffffffffffffffffffff1602179055508173ffffffffffffffffffffffffffffffffffffffff168173ffffffffffffffffffffffffffffffffffffffff167f8be0079c531659141344cd1fd0a4f28419497f9722a3daafe3b4186f6b6457e060405160405180910390a35050565b600033905090565b6040518060c0016040528060008152602001600073ffffffffffffffffffffffffffffffffffffffff168152602001600073ffffffffffffffffffffffffffffffffffffffff1681526020016000815260200160008152602001606081525090565b604051806060016040528060608152602001600081526020016000600281111561194a57611949611bd5565b5b81525090565b6000819050919050565b61196381611950565b82525050565b600060208201905061197e600083018461195a565b92915050565b6000604051905090565b600080fd5b600080fd5b6119a181611950565b81146119ac57600080fd5b50565b6000813590506119be81611998565b92915050565b6000602082840312156119da576119d961198e565b5b60006119e8848285016119af565b91505092915050565b6119fa81611950565b82525050565b600073ffffffffffffffffffffffffffffffffffffffff82169050919050565b6000611a2b82611a00565b9050919050565b611a3b81611a20565b82525050565b600081519050919050565b600082825260208201905092915050565b60005b83811015611a7b578082015181840152602081019050611a60565b60008484015250505050565b6000601f19601f8301169050919050565b6000611aa382611a41565b611aad8185611a4c565b9350611abd818560208601611a5d565b611ac681611a87565b840191505092915050565b600060c083016000830151611ae960008601826119f1565b506020830151611afc6020860182611a32565b506040830151611b0f6040860182611a32565b506060830151611b2260608601826119f1565b506080830151611b3560808601826119f1565b5060a083015184820360a0860152611b4d8282611a98565b9150508091505092915050565b60006020820190508181036000830152611b748184611ad1565b905092915050565b611b8581611a20565b8114611b9057600080fd5b50565b600081359050611ba281611b7c565b92915050565b600060208284031215611bbe57611bbd61198e565b5b6000611bcc84828501611b93565b91505092915050565b7f4e487b7100000000000000000000000000000000000000000000000000000000600052602160045260246000fd5b60038110611c1557611c14611bd5565b5b50565b6000819050611c2682611c04565b919050565b6000611c3682611c18565b9050919050565b611c4681611c2b565b82525050565b60006060830160008301518482036000860152611c698282611a98565b9150506020830151611c7e60208601826119f1565b506040830151611c916040860182611c3d565b508091505092915050565b60006020820190508181036000830152611cb68184611c4c565b905092915050565b600080fd5b600080fd5b7f4e487b7100000000000000000000000000000000000000000000000000000000600052604160045260246000fd5b611d0082611a87565b810181811067ffffffffffffffff82111715611d1f57611d1e611cc8565b5b80604052505050565b6000611d32611984565b9050611d3e8282611cf7565b919050565b600067ffffffffffffffff821115611d5e57611d5d611cc8565b5b611d6782611a87565b9050602081019050919050565b82818337600083830152505050565b6000611d96611d9184611d43565b611d28565b905082815260208101848484011115611db257611db1611cc3565b5b611dbd848285611d74565b509392505050565b600082601f830112611dda57611dd9611cbe565b5b8135611dea848260208601611d83565b91505092915050565b600060208284031215611e0957611e0861198e565b5b600082013567ffffffffffffffff811115611e2757611e26611993565b5b611e3384828501611dc5565b91505092915050565b60008060408385031215611e5357611e5261198e565b5b6000611e6185828601611b93565b925050602083013567ffffffffffffffff811115611e8257611e81611993565b5b611e8e85828601611dc5565b9150509250929050565b611ea181611a20565b82525050565b6000602082019050611ebc6000830184611e98565b92915050565b60038110611ecf57600080fd5b50565b600081359050611ee181611ec2565b92915050565b60008060408385031215611efe57611efd61198e565b5b6000611f0c85828601611b93565b9250506020611f1d85828601611ed2565b9150509250929050565b600082825260208201905092915050565b6000611f4382611a41565b611f4d8185611f27565b9350611f5d818560208601611a5d565b611f6681611a87565b840191505092915050565b600060c082019050611f86600083018961195a565b611f936020830188611e98565b611fa06040830187611e98565b611fad606083018661195a565b611fba608083018561195a565b81810360a0830152611fcc8184611f38565b9050979650505050505050565b611fe281611c2b565b82525050565b600060608201905081810360008301526120028186611f38565b9050612011602083018561195a565b61201e6040830184611fd9565b949350505050565b60008115159050919050565b61203b81612026565b82525050565b60006020820190506120566000830184612032565b92915050565b600080604083850312156120735761207261198e565b5b600061208185828601611b93565b9250506020612092858286016119af565b9150509250929050565b7f4d61785472616e73616374696f6e416d6f756e74000000000000000000000000600082015250565b60006120d2601483611f27565b91506120dd8261209c565b602082019050919050565b60006040820190508181036000830152612101816120c5565b9050612110602083018461195a565b92915050565b7f4e487b7100000000000000000000000000000000000000000000000000000000600052602260045260246000fd5b6000600282049050600182168061215d57607f821691505b6020821081036121705761216f612116565b5b50919050565b7f4d696e54696d654265747765656e5472616e73616374696f6e73000000000000600082015250565b60006121ac601a83611f27565b91506121b782612176565b602082019050919050565b600060408201905081810360008301526121db8161219f565b90506121ea602083018461195a565b92915050565b7f5573657220616c726561647920657869737473206f722069732073757370656e60008201527f6465642e00000000000000000000000000000000000000000000000000000000602082015250565b600061224c602483611f27565b9150612257826121f0565b604082019050919050565b6000602082019050818103600083015261227b8161223f565b9050919050565b60008190508160005260206000209050919050565b60006020601f8301049050919050565b600082821b905092915050565b6000600883026122e47fffffffffffffffffffffffffffffffffffffffffffffffffffffffffffffffff826122a7565b6122ee86836122a7565b95508019841693508086168417925050509392505050565b6000819050919050565b600061232b61232661232184611950565b612306565b611950565b9050919050565b6000819050919050565b61234583612310565b61235961235182612332565b8484546122b4565b825550505050565b600090565b61236e612361565b61237981848461233c565b505050565b5b8181101561239d57612392600082612366565b60018101905061237f565b5050565b601f8211156123e2576123b381612282565b6123bc84612297565b810160208510156123cb578190505b6123df6123d785612297565b83018261237e565b50505b505050565b600082821c905092915050565b6000612405600019846008026123e7565b1980831691505092915050565b600061241e83836123f4565b9150826002028217905092915050565b61243782611a41565b67ffffffffffffffff8111156124505761244f611cc8565b5b61245a8254612145565b6124658282856123a1565b600060209050601f8311600181146124985760008415612486578287015190505b6124908582612412565b8655506124f8565b601f1984166124a686612282565b60005b828110156124ce578489015182556001820191506020850194506020810190506124a9565b868310156124eb57848901516124e7601f8916826123f4565b8355505b6001600288020188555050505b505050505050565b6000602082019050818103600083015261251a8184611f38565b905092915050565b7f5573657220646f6573206e6f742065786973742e000000000000000000000000600082015250565b6000612558601483611f27565b915061256382612522565b602082019050919050565b600060208201905081810360008301526125878161254b565b9050919050565b60006020820190506125a36000830184611fd9565b92915050565b7f55736572206973206e6f74206163746976652e00000000000000000000000000600082015250565b60006125df601383611f27565b91506125ea826125a9565b602082019050919050565b6000602082019050818103600083015261260e816125d2565b9050919050565b7f526563697069656e74206973206e6f7420616e2061637469766520757365722e600082015250565b600061264b602083611f27565b915061265682612615565b602082019050919050565b6000602082019050818103600083015261267a8161263e565b9050919050565b7f496e73756666696369656e742062616c616e63652e0000000000000000000000600082015250565b60006126b7601583611f27565b91506126c282612681565b602082019050919050565b600060208201905081810360008301526126e6816126aa565b9050919050565b7f53656e646572206164647265737320697320626c61636b6c69737465642e0000600082015250565b6000612723601e83611f27565b915061272e826126ed565b602082019050919050565b6000602082019050818103600083015261275281612716565b9050919050565b7f526563697069656e74206164647265737320697320626c61636b6c697374656460008201527f2e00000000000000000000000000000000000000000000000000000000000000602082015250565b60006127b5602183611f27565b91506127c082612759565b604082019050919050565b600060208201905081810360008301526127e4816127a8565b9050919050565b7f4e487b7100000000000000000000000000000000000000000000000000000000600052601160045260246000fd5b600061282582611950565b91507fffffffffffffffffffffffffffffffffffffffffffffffffffffffffffffffff8203612857576128566127eb565b5b600182019050919050565b7f416d6f756e742065786365656473207472616e73616374696f6e206c696d697460008201527f2e00000000000000000000000000000000000000000000000000000000000000602082015250565b60006128be602183611f27565b91506128c982612862565b604082019050919050565b600060208201905081810360008301526128ed816128b1565b9050919050565b60006128ff82611950565b915061290a83611950565b9250828203905081811115612922576129216127eb565b5b92915050565b7f486967682d6672657175656e6379207472616e73616374696f6e20646574656360008201527f7465642e00000000000000000000000000000000000000000000000000000000602082015250565b6000612984602483611f27565b915061298f82612928565b604082019050919050565b600060208201905081810360008301526129b381612977565b9050919050565b60006129c582611950565b91506129d083611950565b92508282019050808211156129e8576129e76127eb565b5b9291505056fea2646970667358221220cd37bdbfc438315cc8bef7062c676505e12babf20ddeaf107982c71be98b85a064736f6c63430008140033",
  "linkReferences": {},
  "deployedLinkReferences": {}
}