{
  "_format": "hh-sol-artifact-1",
  "contractName": "AntiFraudSystem",
  "sourceName": "contracts/AntiFraudSystem.sol",
  "abi": [
    {
      "inputs": [
        {
          "internalType": "uint256",
          "name": "_initialMaxTxAmount",
          "type": "uint256"
        },
        {
          "internalType": "uint256",
          "name": "_initialMinTime",
          "type": "uint256"
        }
      ],
      "stateMutability": "nonpayable",
      "type": "constructor"
    },
    {
      "inputs": [
        {
          "internalType": "address",
          "name": "owner",
          "type": "address"
        }
      ],
      "name": "OwnableInvalidOwner",
      "type": "error"
    },
    {
      "inputs": [
        {
          "internalType": "address",
          "name": "account",
          "type": "address"
        }
      ],
      "name": "OwnableUnauthorizedAccount",
      "type": "error"
    },
    {
      "inputs": [],
      "name": "ReentrancyGuardReentrantCall",
      "type": "error"
    },
    {
      "anonymous": false,
      "inputs": [
        {
          "indexed": true,
          "internalType": "address",
          "name": "userAddress",
          "type": "address"
        },
        {
          "indexed": false,
          "internalType": "string",
          "name": "reason",
          "type": "string"
        }
      ],
      "name": "AddressBlacklisted",
      "type": "event"
    },
    {
      "anonymous": false,
      "inputs": [
        {
          "indexed": true,
          "internalType": "address",
          "name": "user",
          "type": "address"
        }
      ],
      "name": "AddressUnblacklisted",
      "type": "event"
    },
    {
      "anonymous": false,
      "inputs": [
        {
          "indexed": true,
          "internalType": "address",
          "name": "user",
          "type": "address"
        },
        {
          "indexed": false,
          "internalType": "uint256",
          "name": "amount",
          "type": "uint256"
        }
      ],
      "name": "DepositMade",
      "type": "event"
    },
    {
      "anonymous": false,
      "inputs": [
        {
          "indexed": false,
          "internalType": "string",
          "name": "rule",
          "type": "string"
        },
        {
          "indexed": false,
          "internalType": "uint256",
          "name": "newValue",
          "type": "uint256"
        }
      ],
      "name": "FraudRuleChanged",
      "type": "event"
    },
    {
      "anonymous": false,
      "inputs": [
        {
          "indexed": true,
          "internalType": "address",
          "name": "previousOwner",
          "type": "address"
        },
        {
          "indexed": true,
          "internalType": "address",
          "name": "newOwner",
          "type": "address"
        }
      ],
      "name": "OwnershipTransferred",
      "type": "event"
    },
    {
      "anonymous": false,
      "inputs": [
        {
          "indexed": true,
          "internalType": "uint256",
          "name": "id",
          "type": "uint256"
        },
        {
          "indexed": true,
          "internalType": "address",
          "name": "from",
          "type": "address"
        },
        {
          "indexed": false,
          "internalType": "string",
          "name": "reason",
          "type": "string"
        }
      ],
      "name": "TransactionFlagged",
      "type": "event"
    },
    {
      "anonymous": false,
      "inputs": [
        {
          "indexed": true,
          "internalType": "uint256",
          "name": "id",
          "type": "uint256"
        },
        {
          "indexed": true,
          "internalType": "address",
          "name": "from",
          "type": "address"
        },
        {
          "indexed": true,
          "internalType": "address",
          "name": "to",
          "type": "address"
        },
        {
          "indexed": false,
          "internalType": "uint256",
          "name": "amount",
          "type": "uint256"
        }
      ],
      "name": "TransactionMade",
      "type": "event"
    },
    {
      "anonymous": false,
      "inputs": [
        {
          "indexed": true,
          "internalType": "address",
          "name": "user",
          "type": "address"
        },
        {
          "indexed": false,
          "internalType": "uint256",
          "name": "newLimit",
          "type": "uint256"
        }
      ],
      "name": "UserLimitChanged",
      "type": "event"
    },
    {
      "anonymous": false,
      "inputs": [
        {
          "indexed": true,
          "internalType": "address",
          "name": "userAddress",
          "type": "address"
        },
        {
          "indexed": false,
          "internalType": "string",
          "name": "name",
          "type": "string"
        }
      ],
      "name": "UserRegistered",
      "type": "event"
    },
    {
      "anonymous": false,
      "inputs": [
        {
          "indexed": true,
          "internalType": "address",
          "name": "userAddress",
          "type": "address"
        },
        {
          "indexed": false,
          "internalType": "enum AntiFraudSystem.UserStatus",
          "name": "newStatus",
          "type": "uint8"
        }
      ],
      "name": "UserStatusChanged",
      "type": "event"
    },
    {
      "anonymous": false,
      "inputs": [
        {
          "indexed": true,
          "internalType": "address",
          "name": "user",
          "type": "address"
        },
        {
          "indexed": false,
          "internalType": "uint256",
          "name": "amount",
          "type": "uint256"
        }
      ],
      "name": "WithdrawMade",
      "type": "event"
    },
    {
      "inputs": [
        {
          "internalType": "address",
          "name": "_userAddress",
          "type": "address"
        },
        {
          "internalType": "string",
          "name": "_reason",
          "type": "string"
        }
      ],
      "name": "blacklistAddress",
      "outputs": [],
      "stateMutability": "nonpayable",
      "type": "function"
    },
    {
      "inputs": [
        {
          "internalType": "address",
          "name": "",
          "type": "address"
        }
      ],
      "name": "blacklistedAddresses",
      "outputs": [
        {
          "internalType": "bool",
          "name": "",
          "type": "bool"
        }
      ],
      "stateMutability": "view",
      "type": "function"
    },
    {
      "inputs": [
        {
          "internalType": "uint256",
          "name": "_newLimit",
          "type": "uint256"
        }
      ],
      "name": "changeMyDailyLimit",
      "outputs": [],
      "stateMutability": "nonpayable",
      "type": "function"
    },
    {
      "inputs": [
        {
          "internalType": "address",
          "name": "",
          "type": "address"
        }
      ],
      "name": "dailyTotalSpent",
      "outputs": [
        {
          "internalType": "uint256",
          "name": "",
          "type": "uint256"
        }
      ],
      "stateMutability": "view",
      "type": "function"
    },
    {
      "inputs": [],
      "name": "deposit",
      "outputs": [],
      "stateMutability": "payable",
      "type": "function"
    },
    {
      "inputs": [
        {
          "internalType": "uint256",
          "name": "_id",
          "type": "uint256"
        }
      ],
      "name": "getTransaction",
      "outputs": [
        {
          "components": [
            {
              "internalType": "uint256",
              "name": "id",
              "type": "uint256"
            },
            {
              "internalType": "address",
              "name": "from",
              "type": "address"
            },
            {
              "internalType": "address",
              "name": "to",
              "type": "address"
            },
            {
              "internalType": "uint256",
              "name": "amount",
              "type": "uint256"
            },
            {
              "internalType": "uint256",
              "name": "timestamp",
              "type": "uint256"
            },
            {
              "internalType": "string",
              "name": "status",
              "type": "string"
            }
          ],
          "internalType": "struct AntiFraudSystem.Transaction",
          "name": "",
          "type": "tuple"
        }
      ],
      "stateMutability": "view",
      "type": "function"
    },
    {
      "inputs": [
        {
          "internalType": "address",
          "name": "_userAddress",
          "type": "address"
        }
      ],
      "name": "getUser",
      "outputs": [
        {
          "components": [
            {
              "internalType": "string",
              "name": "name",
              "type": "string"
            },
            {
              "internalType": "uint256",
              "name": "balance",
              "type": "uint256"
            },
            {
              "internalType": "enum AntiFraudSystem.UserStatus",
              "name": "status",
              "type": "uint8"
            }
          ],
          "internalType": "struct AntiFraudSystem.User",
          "name": "",
          "type": "tuple"
        }
      ],
      "stateMutability": "view",
      "type": "function"
    },
    {
      "inputs": [
        {
          "internalType": "address",
          "name": "",
          "type": "address"
        }
      ],
      "name": "lastResetDay",
      "outputs": [
        {
          "internalType": "uint256",
          "name": "",
          "type": "uint256"
        }
      ],
      "stateMutability": "view",
      "type": "function"
    },
    {
      "inputs": [
        {
          "internalType": "address",
          "name": "",
          "type": "address"
        }
      ],
      "name": "lastTransactionTimestamp",
      "outputs": [
        {
          "internalType": "uint256",
          "name": "",
          "type": "uint256"
        }
      ],
      "stateMutability": "view",
      "type": "function"
    },
    {
      "inputs": [
        {
          "internalType": "address",
          "name": "_to",
          "type": "address"
        },
        {
          "internalType": "uint256",
          "name": "_amount",
          "type": "uint256"
        }
      ],
      "name": "makePayment",
      "outputs": [],
      "stateMutability": "nonpayable",
      "type": "function"
    },
    {
      "inputs": [],
      "name": "maxTransactionAmount",
      "outputs": [
        {
          "internalType": "uint256",
          "name": "",
          "type": "uint256"
        }
      ],
      "stateMutability": "view",
      "type": "function"
    },
    {
      "inputs": [],
      "name": "minTimeBetweenTransactions",
      "outputs": [
        {
          "internalType": "uint256",
          "name": "",
          "type": "uint256"
        }
      ],
      "stateMutability": "view",
      "type": "function"
    },
    {
      "inputs": [],
      "name": "owner",
      "outputs": [
        {
          "internalType": "address",
          "name": "",
          "type": "address"
        }
      ],
      "stateMutability": "view",
      "type": "function"
    },
    {
      "inputs": [],
      "name": "pauseContract",
      "outputs": [],
      "stateMutability": "nonpayable",
      "type": "function"
    },
    {
      "inputs": [],
      "name": "paused",
      "outputs": [
        {
          "internalType": "bool",
          "name": "",
          "type": "bool"
        }
      ],
      "stateMutability": "view",
      "type": "function"
    },
    {
      "inputs": [
        {
          "internalType": "string",
          "name": "_name",
          "type": "string"
        }
      ],
      "name": "registerUser",
      "outputs": [],
      "stateMutability": "nonpayable",
      "type": "function"
    },
    {
      "inputs": [],
      "name": "renounceOwnership",
      "outputs": [],
      "stateMutability": "nonpayable",
      "type": "function"
    },
    {
      "inputs": [
        {
          "internalType": "uint256",
          "name": "_newMax",
          "type": "uint256"
        }
      ],
      "name": "setMaxTransactionAmount",
      "outputs": [],
      "stateMutability": "nonpayable",
      "type": "function"
    },
    {
      "inputs": [
        {
          "internalType": "uint256",
          "name": "_newMin",
          "type": "uint256"
        }
      ],
      "name": "setMinTimeBetweenTransactions",
      "outputs": [],
      "stateMutability": "nonpayable",
      "type": "function"
    },
    {
      "inputs": [
        {
          "internalType": "address",
          "name": "_user",
          "type": "address"
        },
        {
          "internalType": "uint256",
          "name": "_limit",
          "type": "uint256"
        }
      ],
      "name": "setUserDailyLimit",
      "outputs": [],
      "stateMutability": "nonpayable",
      "type": "function"
    },
    {
      "inputs": [
        {
          "internalType": "address",
          "name": "_userAddress",
          "type": "address"
        },
        {
          "internalType": "enum AntiFraudSystem.UserStatus",
          "name": "_newStatus",
          "type": "uint8"
        }
      ],
      "name": "setUserStatus",
      "outputs": [],
      "stateMutability": "nonpayable",
      "type": "function"
    },
    {
      "inputs": [],
      "name": "transactionCounter",
      "outputs": [
        {
          "internalType": "uint256",
          "name": "",
          "type": "uint256"
        }
      ],
      "stateMutability": "view",
      "type": "function"
    },
    {
      "inputs": [
        {
          "internalType": "uint256",
          "name": "",
          "type": "uint256"
        }
      ],
      "name": "transactions",
      "outputs": [
        {
          "internalType": "uint256",
          "name": "id",
          "type": "uint256"
        },
        {
          "internalType": "address",
          "name": "from",
          "type": "address"
        },
        {
          "internalType": "address",
          "name": "to",
          "type": "address"
        },
        {
          "internalType": "uint256",
          "name": "amount",
          "type": "uint256"
        },
        {
          "internalType": "uint256",
          "name": "timestamp",
          "type": "uint256"
        },
        {
          "internalType": "string",
          "name": "status",
          "type": "string"
        }
      ],
      "stateMutability": "view",
      "type": "function"
    },
    {
      "inputs": [
        {
          "internalType": "address",
          "name": "newOwner",
          "type": "address"
        }
      ],
      "name": "transferOwnership",
      "outputs": [],
      "stateMutability": "nonpayable",
      "type": "function"
    },
    {
      "inputs": [
        {
          "internalType": "address",
          "name": "_userAddress",
          "type": "address"
        }
      ],
      "name": "unblacklistAddress",
      "outputs": [],
      "stateMutability": "nonpayable",
      "type": "function"
    },
    {
      "inputs": [],
      "name": "unpauseContract",
      "outputs": [],
      "stateMutability": "nonpayable",
      "type": "function"
    },
    {
      "inputs": [
        {
          "internalType": "address",
          "name": "",
          "type": "address"
        }
      ],
      "name": "userDailyLimits",
      "outputs": [
        {
          "internalType": "uint256",
          "name": "",
          "type": "uint256"
        }
      ],
      "stateMutability": "view",
      "type": "function"
    },
    {
      "inputs": [
        {
          "internalType": "address",
          "name": "",
          "type": "address"
        }
      ],
      "name": "users",
      "outputs": [
        {
          "internalType": "string",
          "name": "name",
          "type": "string"
        },
        {
          "internalType": "uint256",
          "name": "balance",
          "type": "uint256"
        },
        {
          "internalType": "enum AntiFraudSystem.UserStatus",
          "name": "status",
          "type": "uint8"
        }
      ],
      "stateMutability": "view",
      "type": "function"
    },
    {
      "inputs": [
        {
          "internalType": "uint256",
          "name": "_amount",
          "type": "uint256"
        }
      ],
      "name": "withdraw",
      "outputs": [],
      "stateMutability": "nonpayable",
      "type": "function"
    }
  ],
  "bytecode": "0x60806040523480156200001157600080fd5b50604051620041cb380380620041cb833981810160405281019062000037919062000382565b33600073ffffffffffffffffffffffffffffffffffffffff168173ffffffffffffffffffffffffffffffffffffffff1603620000ad5760006040517f1e4fbdf7000000000000000000000000000000000000000000000000000000008152600401620000a491906200040e565b60405180910390fd5b620000be816200027e60201b60201c565b5060018081905550816006819055508060078190555060405180606001604052806040518060400160405280600581526020017f41646d696e000000000000000000000000000000000000000000000000000000815250815260200169d3c21bcecceda10000008152602001600160028111156200014157620001406200042b565b5b815250600360003373ffffffffffffffffffffffffffffffffffffffff1673ffffffffffffffffffffffffffffffffffffffff16815260200190815260200160002060008201518160000190816200019a9190620006ca565b506020820151816001015560408201518160020160006101000a81548160ff02191690836002811115620001d357620001d26200042b565b5b0217905550905050683635c9adc5dea00000600860003373ffffffffffffffffffffffffffffffffffffffff1673ffffffffffffffffffffffffffffffffffffffff168152602001908152602001600020819055503373ffffffffffffffffffffffffffffffffffffffff167f48cac28ad4dc618e15f4c2dd5e97751182f166de97b25618318b2112aa951a2f6040516200026e9062000812565b60405180910390a2505062000834565b60008060009054906101000a900473ffffffffffffffffffffffffffffffffffffffff169050816000806101000a81548173ffffffffffffffffffffffffffffffffffffffff021916908373ffffffffffffffffffffffffffffffffffffffff1602179055508173ffffffffffffffffffffffffffffffffffffffff168173ffffffffffffffffffffffffffffffffffffffff167f8be0079c531659141344cd1fd0a4f28419497f9722a3daafe3b4186f6b6457e060405160405180910390a35050565b600080fd5b6000819050919050565b6200035c8162000347565b81146200036857600080fd5b50565b6000815190506200037c8162000351565b92915050565b600080604083850312156200039c576200039b62000342565b5b6000620003ac858286016200036b565b9250506020620003bf858286016200036b565b9150509250929050565b600073ffffffffffffffffffffffffffffffffffffffff82169050919050565b6000620003f682620003c9565b9050919050565b6200040881620003e9565b82525050565b6000602082019050620004256000830184620003fd565b92915050565b7f4e487b7100000000000000000000000000000000000000000000000000000000600052602160045260246000fd5b600081519050919050565b7f4e487b7100000000000000000000000000000000000000000000000000000000600052604160045260246000fd5b7f4e487b7100000000000000000000000000000000000000000000000000000000600052602260045260246000fd5b60006002820490506001821680620004dc57607f821691505b602082108103620004f257620004f162000494565b5b50919050565b60008190508160005260206000209050919050565b60006020601f8301049050919050565b600082821b905092915050565b6000600883026200055c7fffffffffffffffffffffffffffffffffffffffffffffffffffffffffffffffff826200051d565b6200056886836200051d565b95508019841693508086168417925050509392505050565b6000819050919050565b6000620005ab620005a56200059f8462000347565b62000580565b62000347565b9050919050565b6000819050919050565b620005c7836200058a565b620005df620005d682620005b2565b8484546200052a565b825550505050565b600090565b620005f6620005e7565b62000603818484620005bc565b505050565b5b818110156200062b576200061f600082620005ec565b60018101905062000609565b5050565b601f8211156200067a576200064481620004f8565b6200064f846200050d565b810160208510156200065f578190505b620006776200066e856200050d565b83018262000608565b50505b505050565b600082821c905092915050565b60006200069f600019846008026200067f565b1980831691505092915050565b6000620006ba83836200068c565b9150826002028217905092915050565b620006d5826200045a565b67ffffffffffffffff811115620006f157620006f062000465565b5b620006fd8254620004c3565b6200070a8282856200062f565b600060209050601f8311600181146200074257600084156200072d578287015190505b620007398582620006ac565b865550620007a9565b601f1984166200075286620004f8565b60005b828110156200077c5784890151825560018201915060208501945060208101905062000755565b868310156200079c578489015162000798601f8916826200068c565b8355505b6001600288020188555050505b505050505050565b600082825260208201905092915050565b7f41646d696e000000000000000000000000000000000000000000000000000000600082015250565b6000620007fa600583620007b1565b91506200080782620007c2565b602082019050919050565b600060208201905081810360008301526200082d81620007eb565b9050919050565b61398780620008446000396000f3fe6080604052600436106101c25760003560e01c80636f77926b116100f7578063a87430ba11610095578063d29863f411610064578063d29863f414610610578063d5749d421461064d578063f2fde38b1461068a578063f98cf07c146106b3576101c2565b8063a87430ba14610585578063b33712c5146105c4578063c8c8ebe4146105db578063d0e30db014610606576101c2565b806371f8fa04116100d157806371f8fa04146104c65780638da5cb5b146104ef578063920e3c961461051a5780639ace38c214610543576101c2565b80636f77926b14610449578063704f1b9414610486578063715018a6146104af576101c2565b806333ea3dc81161016457806345e349491161013e57806345e349491461038f57806347f5726c146103b857806356cf37b7146103e15780635c975abb1461041e576101c2565b806333ea3dc8146102fe578063360cf54a1461033b578063439766ce14610378576101c2565b80631c5f746a116101a05780631c5f746a146102465780631e293c101461026f5780632e1a7d4d1461029857806333b9baa5146102c1576101c2565b80630501866e146101c757806314e887e8146101f2578063177c49a71461021d575b600080fd5b3480156101d357600080fd5b506101dc6106dc565b6040516101e9919061280d565b60405180910390f35b3480156101fe57600080fd5b506102076106e2565b604051610214919061280d565b60405180910390f35b34801561022957600080fd5b50610244600480360381019061023f91906128c6565b6106e8565b005b34801561025257600080fd5b5061026d60048036038101906102689190612906565b610786565b005b34801561027b57600080fd5b5061029660048036038101906102919190612906565b6108d1565b005b3480156102a457600080fd5b506102bf60048036038101906102ba9190612906565b61091a565b005b3480156102cd57600080fd5b506102e860048036038101906102e39190612933565b610c0c565b6040516102f5919061280d565b60405180910390f35b34801561030a57600080fd5b5061032560048036038101906103209190612906565b610c24565b6040516103329190612a97565b60405180910390f35b34801561034757600080fd5b50610362600480360381019061035d9190612933565b610dad565b60405161036f919061280d565b60405180910390f35b34801561038457600080fd5b5061038d610dc5565b005b34801561039b57600080fd5b506103b660048036038101906103b19190612933565b610e22565b005b3480156103c457600080fd5b506103df60048036038101906103da9190612906565b610ec8565b005b3480156103ed57600080fd5b5061040860048036038101906104039190612933565b610f11565b604051610415919061280d565b60405180910390f35b34801561042a57600080fd5b50610433610f29565b6040516104409190612ad4565b60405180910390f35b34801561045557600080fd5b50610470600480360381019061046b9190612933565b610f3c565b60405161047d9190612bb6565b60405180910390f35b34801561049257600080fd5b506104ad60048036038101906104a89190612d0d565b61106c565b005b3480156104bb57600080fd5b506104c46112d9565b005b3480156104d257600080fd5b506104ed60048036038101906104e89190612d56565b6112ed565b005b3480156104fb57600080fd5b5061050461139f565b6040516105119190612dc1565b60405180910390f35b34801561052657600080fd5b50610541600480360381019061053c9190612e01565b6113c8565b005b34801561054f57600080fd5b5061056a60048036038101906105659190612906565b611542565b60405161057c96959493929190612e8b565b60405180910390f35b34801561059157600080fd5b506105ac60048036038101906105a79190612933565b611646565b6040516105bb93929190612f02565b60405180910390f35b3480156105d057600080fd5b506105d9611705565b005b3480156105e757600080fd5b506105f0611762565b6040516105fd919061280d565b60405180910390f35b61060e611768565b005b34801561061c57600080fd5b5061063760048036038101906106329190612933565b61196a565b604051610644919061280d565b60405180910390f35b34801561065957600080fd5b50610674600480360381019061066f9190612933565b611982565b6040516106819190612ad4565b60405180910390f35b34801561069657600080fd5b506106b160048036038101906106ac9190612933565b6119a2565b005b3480156106bf57600080fd5b506106da60048036038101906106d591906128c6565b611a28565b005b60075481565b60025481565b6106f0612402565b80600860008473ffffffffffffffffffffffffffffffffffffffff1673ffffffffffffffffffffffffffffffffffffffff168152602001908152602001600020819055508173ffffffffffffffffffffffffffffffffffffffff167fd32dd0aca1fbc0ee9709490cfbfcec89f40bb55db59671832a5526bc2f4198ce8260405161077a919061280d565b60405180910390a25050565b6001600281111561079a57610799612aef565b5b600360003373ffffffffffffffffffffffffffffffffffffffff1673ffffffffffffffffffffffffffffffffffffffff16815260200190815260200160002060020160009054906101000a900460ff1660028111156107fc576107fb612aef565b5b1461083c576040517f08c379a000000000000000000000000000000000000000000000000000000000815260040161083390612f8c565b60405180910390fd5b80600860003373ffffffffffffffffffffffffffffffffffffffff1673ffffffffffffffffffffffffffffffffffffffff168152602001908152602001600020819055503373ffffffffffffffffffffffffffffffffffffffff167fd32dd0aca1fbc0ee9709490cfbfcec89f40bb55db59671832a5526bc2f4198ce826040516108c6919061280d565b60405180910390a250565b6108d9612402565b806006819055507fdb72e3bdcee8aa7fe317c76602b9ea0ca5baa85593a73eb4c1dccf98c35254b78160405161090f9190612ff8565b60405180910390a150565b6001600281111561092e5761092d612aef565b5b600360003373ffffffffffffffffffffffffffffffffffffffff1673ffffffffffffffffffffffffffffffffffffffff16815260200190815260200160002060020160009054906101000a900460ff1660028111156109905761098f612aef565b5b146109d0576040517f08c379a00000000000000000000000000000000000000000000000000000000081526004016109c790612f8c565b60405180910390fd5b6109d8612489565b600c60009054906101000a900460ff1615610a28576040517f08c379a0000000000000000000000000000000000000000000000000000000008152600401610a1f90613072565b60405180910390fd5b80600360003373ffffffffffffffffffffffffffffffffffffffff1673ffffffffffffffffffffffffffffffffffffffff168152602001908152602001600020600101541015610aad576040517f08c379a0000000000000000000000000000000000000000000000000000000008152600401610aa4906130de565b60405180910390fd5b80600360003373ffffffffffffffffffffffffffffffffffffffff1673ffffffffffffffffffffffffffffffffffffffff1681526020019081526020016000206001016000828254610aff919061312d565b9250508190555060003373ffffffffffffffffffffffffffffffffffffffff1682604051610b2c90613192565b60006040518083038185875af1925050503d8060008114610b69576040519150601f19603f3d011682016040523d82523d6000602084013e610b6e565b606091505b5050905080610bb2576040517f08c379a0000000000000000000000000000000000000000000000000000000008152600401610ba9906131f3565b60405180910390fd5b3373ffffffffffffffffffffffffffffffffffffffff167f68fed7edf5c5c0d4c848de80a312fe0ac0b0ef3d37fc533a5c3923302d60bbe283604051610bf8919061280d565b60405180910390a250610c096124cf565b50565b600a6020528060005260406000206000915090505481565b610c2c61275f565b600460008381526020019081526020016000206040518060c0016040529081600082015481526020016001820160009054906101000a900473ffffffffffffffffffffffffffffffffffffffff1673ffffffffffffffffffffffffffffffffffffffff1673ffffffffffffffffffffffffffffffffffffffff1681526020016002820160009054906101000a900473ffffffffffffffffffffffffffffffffffffffff1673ffffffffffffffffffffffffffffffffffffffff1673ffffffffffffffffffffffffffffffffffffffff1681526020016003820154815260200160048201548152602001600582018054610d2490613242565b80601f0160208091040260200160405190810160405280929190818152602001828054610d5090613242565b8015610d9d5780601f10610d7257610100808354040283529160200191610d9d565b820191906000526020600020905b815481529060010190602001808311610d8057829003601f168201915b5050505050815250509050919050565b60086020528060005260406000206000915090505481565b610dcd612402565b6001600c60006101000a81548160ff0219169083151502179055507fdb72e3bdcee8aa7fe317c76602b9ea0ca5baa85593a73eb4c1dccf98c35254b76001604051610e189190613304565b60405180910390a1565b610e2a612402565b6000600560008373ffffffffffffffffffffffffffffffffffffffff1673ffffffffffffffffffffffffffffffffffffffff16815260200190815260200160002060006101000a81548160ff0219169083151502179055508073ffffffffffffffffffffffffffffffffffffffff167fb2aa8f2cce614e8fceaca560dbaf2a8ed3083e4ab371b10bf6d02e359216767a60405160405180910390a250565b610ed0612402565b806007819055507fdb72e3bdcee8aa7fe317c76602b9ea0ca5baa85593a73eb4c1dccf98c35254b781604051610f06919061337e565b60405180910390a150565b600b6020528060005260406000206000915090505481565b600c60009054906101000a900460ff1681565b610f446127c1565b600360008373ffffffffffffffffffffffffffffffffffffffff1673ffffffffffffffffffffffffffffffffffffffff168152602001908152602001600020604051806060016040529081600082018054610f9e90613242565b80601f0160208091040260200160405190810160405280929190818152602001828054610fca90613242565b80156110175780601f10610fec57610100808354040283529160200191611017565b820191906000526020600020905b815481529060010190602001808311610ffa57829003601f168201915b50505050508152602001600182015481526020016002820160009054906101000a900460ff16600281111561104f5761104e612aef565b5b600281111561106157611060612aef565b5b815250509050919050565b600c60009054906101000a900460ff16156110bc576040517f08c379a00000000000000000000000000000000000000000000000000000000081526004016110b390613072565b60405180910390fd5b600060028111156110d0576110cf612aef565b5b600360003373ffffffffffffffffffffffffffffffffffffffff1673ffffffffffffffffffffffffffffffffffffffff16815260200190815260200160002060020160009054906101000a900460ff16600281111561113257611131612aef565b5b14611172576040517f08c379a00000000000000000000000000000000000000000000000000000000081526004016111699061341e565b60405180910390fd5b6040518060600160405280828152602001683635c9adc5dea000008152602001600160028111156111a6576111a5612aef565b5b815250600360003373ffffffffffffffffffffffffffffffffffffffff1673ffffffffffffffffffffffffffffffffffffffff16815260200190815260200160002060008201518160000190816111fd91906135e0565b506020820151816001015560408201518160020160006101000a81548160ff0219169083600281111561123357611232612aef565b5b021790555090505068056bc75e2d63100000600860003373ffffffffffffffffffffffffffffffffffffffff1673ffffffffffffffffffffffffffffffffffffffff168152602001908152602001600020819055503373ffffffffffffffffffffffffffffffffffffffff167f48cac28ad4dc618e15f4c2dd5e97751182f166de97b25618318b2112aa951a2f826040516112ce91906136b2565b60405180910390a250565b6112e1612402565b6112eb60006124d8565b565b6112f5612402565b6001600560008473ffffffffffffffffffffffffffffffffffffffff1673ffffffffffffffffffffffffffffffffffffffff16815260200190815260200160002060006101000a81548160ff0219169083151502179055508173ffffffffffffffffffffffffffffffffffffffff167fddbfcbca8a6ec25cc3e99e3a7ddc04420eaa6749c91bffcd405e0c3ecc42d9f48260405161139391906136b2565b60405180910390a25050565b60008060009054906101000a900473ffffffffffffffffffffffffffffffffffffffff16905090565b6113d0612402565b600060028111156113e4576113e3612aef565b5b600360008473ffffffffffffffffffffffffffffffffffffffff1673ffffffffffffffffffffffffffffffffffffffff16815260200190815260200160002060020160009054906101000a900460ff16600281111561144657611445612aef565b5b03611486576040517f08c379a000000000000000000000000000000000000000000000000000000000815260040161147d90613720565b60405180910390fd5b80600360008473ffffffffffffffffffffffffffffffffffffffff1673ffffffffffffffffffffffffffffffffffffffff16815260200190815260200160002060020160006101000a81548160ff021916908360028111156114eb576114ea612aef565b5b02179055508173ffffffffffffffffffffffffffffffffffffffff167fb3b609c7a5e504a312603e90d906d1667fd5caff0a840ad07bf5709a3ca1a045826040516115369190613740565b60405180910390a25050565b60046020528060005260406000206000915090508060000154908060010160009054906101000a900473ffffffffffffffffffffffffffffffffffffffff16908060020160009054906101000a900473ffffffffffffffffffffffffffffffffffffffff16908060030154908060040154908060050180546115c390613242565b80601f01602080910402602001604051908101604052809291908181526020018280546115ef90613242565b801561163c5780601f106116115761010080835404028352916020019161163c565b820191906000526020600020905b81548152906001019060200180831161161f57829003601f168201915b5050505050905086565b600360205280600052604060002060009150905080600001805461166990613242565b80601f016020809104026020016040519081016040528092919081815260200182805461169590613242565b80156116e25780601f106116b7576101008083540402835291602001916116e2565b820191906000526020600020905b8154815290600101906020018083116116c557829003601f168201915b5050505050908060010154908060020160009054906101000a900460ff16905083565b61170d612402565b6000600c60006101000a81548160ff0219169083151502179055507fdb72e3bdcee8aa7fe317c76602b9ea0ca5baa85593a73eb4c1dccf98c35254b760006040516117589190613796565b60405180910390a1565b60065481565b6001600281111561177c5761177b612aef565b5b600360003373ffffffffffffffffffffffffffffffffffffffff1673ffffffffffffffffffffffffffffffffffffffff16815260200190815260200160002060020160009054906101000a900460ff1660028111156117de576117dd612aef565b5b1461181e576040517f08c379a000000000000000000000000000000000000000000000000000000000815260040161181590612f8c565b60405180910390fd5b611826612489565b600c60009054906101000a900460ff1615611876576040517f08c379a000000000000000000000000000000000000000000000000000000000815260040161186d90613072565b60405180910390fd5b600034116118b9576040517f08c379a00000000000000000000000000000000000000000000000000000000081526004016118b090613810565b60405180910390fd5b34600360003373ffffffffffffffffffffffffffffffffffffffff1673ffffffffffffffffffffffffffffffffffffffff168152602001908152602001600020600101600082825461190b9190613830565b925050819055503373ffffffffffffffffffffffffffffffffffffffff167fd15c9547ea5c06670c0010ce19bc32d54682a4b3801ece7f3ab0c3f17106b4bb34604051611958919061280d565b60405180910390a26119686124cf565b565b60096020528060005260406000206000915090505481565b60056020528060005260406000206000915054906101000a900460ff1681565b6119aa612402565b600073ffffffffffffffffffffffffffffffffffffffff168173ffffffffffffffffffffffffffffffffffffffff1603611a1c5760006040517f1e4fbdf7000000000000000000000000000000000000000000000000000000008152600401611a139190612dc1565b60405180910390fd5b611a25816124d8565b50565b60026000815480929190611a3b90613864565b91905055506000600254905060006201518042611a5891906138db565b90503373ffffffffffffffffffffffffffffffffffffffff168473ffffffffffffffffffffffffffffffffffffffff1603611ad557611ace8285856040518060400160405280601881526020017f43616e6e6f74207472616e7366657220746f2073656c662e000000000000000081525061259c565b50506123fe565b60016002811115611ae957611ae8612aef565b5b600360003373ffffffffffffffffffffffffffffffffffffffff1673ffffffffffffffffffffffffffffffffffffffff16815260200190815260200160002060020160009054906101000a900460ff166002811115611b4b57611b4a612aef565b5b14611b9857611b918285856040518060400160405280601581526020017f53656e646572206973206e6f74206163746976652e000000000000000000000081525061259c565b50506123fe565b600c60009054906101000a900460ff1615611bf557611bee8285856040518060400160405280601381526020017f436f6e7472616374206973207061757365642e0000000000000000000000000081525061259c565b50506123fe565b60016002811115611c0957611c08612aef565b5b600360008673ffffffffffffffffffffffffffffffffffffffff1673ffffffffffffffffffffffffffffffffffffffff16815260200190815260200160002060020160009054906101000a900460ff166002811115611c6b57611c6a612aef565b5b14611cb857611cb18285856040518060400160405280602081526020017f526563697069656e74206973206e6f7420616e2061637469766520757365722e81525061259c565b50506123fe565b82600360003373ffffffffffffffffffffffffffffffffffffffff1673ffffffffffffffffffffffffffffffffffffffff168152602001908152602001600020600101541015611d4a57611d438285856040518060400160405280601581526020017f496e73756666696369656e742062616c616e63652e000000000000000000000081525061259c565b50506123fe565b600560003373ffffffffffffffffffffffffffffffffffffffff1673ffffffffffffffffffffffffffffffffffffffff16815260200190815260200160002060009054906101000a900460ff1615611de457611ddd8285856040518060400160405280601681526020017f53656e64657220697320626c61636b6c69737465642e0000000000000000000081525061259c565b50506123fe565b600560008573ffffffffffffffffffffffffffffffffffffffff1673ffffffffffffffffffffffffffffffffffffffff16815260200190815260200160002060009054906101000a900460ff1615611e7e57611e778285856040518060400160405280601981526020017f526563697069656e7420697320626c61636b6c69737465642e0000000000000081525061259c565b50506123fe565b600654831115611eb357611eac82858560405180606001604052806021815260200161390d6021913961259c565b50506123fe565b6000600b60003373ffffffffffffffffffffffffffffffffffffffff1673ffffffffffffffffffffffffffffffffffffffff1681526020019081526020016000205442611f00919061312d565b9050600754811015611f3857611f3083868660405180606001604052806024815260200161392e6024913961259c565b5050506123fe565b81600a60003373ffffffffffffffffffffffffffffffffffffffff1673ffffffffffffffffffffffffffffffffffffffff1681526020019081526020016000205414612008576000600960003373ffffffffffffffffffffffffffffffffffffffff1673ffffffffffffffffffffffffffffffffffffffff1681526020019081526020016000208190555081600a60003373ffffffffffffffffffffffffffffffffffffffff1673ffffffffffffffffffffffffffffffffffffffff168152602001908152602001600020819055505b600860003373ffffffffffffffffffffffffffffffffffffffff1673ffffffffffffffffffffffffffffffffffffffff1681526020019081526020016000205484600960003373ffffffffffffffffffffffffffffffffffffffff1673ffffffffffffffffffffffffffffffffffffffff168152602001908152602001600020546120939190613830565b11156120e2576120da8386866040518060400160405280601e81526020017f506572736f6e616c206461696c79206c696d69742065786365656465642e000081525061259c565b5050506123fe565b83600360003373ffffffffffffffffffffffffffffffffffffffff1673ffffffffffffffffffffffffffffffffffffffff1681526020019081526020016000206001016000828254612134919061312d565b9250508190555083600360008773ffffffffffffffffffffffffffffffffffffffff1673ffffffffffffffffffffffffffffffffffffffff168152602001908152602001600020600101600082825461218d9190613830565b9250508190555042600b60003373ffffffffffffffffffffffffffffffffffffffff1673ffffffffffffffffffffffffffffffffffffffff1681526020019081526020016000208190555083600960003373ffffffffffffffffffffffffffffffffffffffff1673ffffffffffffffffffffffffffffffffffffffff16815260200190815260200160002060008282546122279190613830565b925050819055506040518060c001604052808481526020013373ffffffffffffffffffffffffffffffffffffffff1681526020018673ffffffffffffffffffffffffffffffffffffffff1681526020018581526020014281526020016040518060400160405280600981526020017f436f6d706c657465640000000000000000000000000000000000000000000000815250815250600460008581526020019081526020016000206000820151816000015560208201518160010160006101000a81548173ffffffffffffffffffffffffffffffffffffffff021916908373ffffffffffffffffffffffffffffffffffffffff16021790555060408201518160020160006101000a81548173ffffffffffffffffffffffffffffffffffffffff021916908373ffffffffffffffffffffffffffffffffffffffff160217905550606082015181600301556080820151816004015560a082015181600501908161239091906135e0565b509050508473ffffffffffffffffffffffffffffffffffffffff163373ffffffffffffffffffffffffffffffffffffffff16847ff6a481d9b8653cca229a5f91f90f04ef416916c2f6b30a5f542070c835d2df80876040516123f2919061280d565b60405180910390a45050505b5050565b61240a612757565b73ffffffffffffffffffffffffffffffffffffffff1661242861139f565b73ffffffffffffffffffffffffffffffffffffffff16146124875761244b612757565b6040517f118cdaa700000000000000000000000000000000000000000000000000000000815260040161247e9190612dc1565b60405180910390fd5b565b6002600154036124c5576040517f3ee5aeb500000000000000000000000000000000000000000000000000000000815260040160405180910390fd5b6002600181905550565b60018081905550565b60008060009054906101000a900473ffffffffffffffffffffffffffffffffffffffff169050816000806101000a81548173ffffffffffffffffffffffffffffffffffffffff021916908373ffffffffffffffffffffffffffffffffffffffff1602179055508173ffffffffffffffffffffffffffffffffffffffff168173ffffffffffffffffffffffffffffffffffffffff167f8be0079c531659141344cd1fd0a4f28419497f9722a3daafe3b4186f6b6457e060405160405180910390a35050565b6040518060c001604052808581526020013373ffffffffffffffffffffffffffffffffffffffff1681526020018473ffffffffffffffffffffffffffffffffffffffff1681526020018381526020014281526020016040518060400160405280600781526020017f466c616767656400000000000000000000000000000000000000000000000000815250815250600460008681526020019081526020016000206000820151816000015560208201518160010160006101000a81548173ffffffffffffffffffffffffffffffffffffffff021916908373ffffffffffffffffffffffffffffffffffffffff16021790555060408201518160020160006101000a81548173ffffffffffffffffffffffffffffffffffffffff021916908373ffffffffffffffffffffffffffffffffffffffff160217905550606082015181600301556080820151816004015560a08201518160050190816126fe91906135e0565b509050503373ffffffffffffffffffffffffffffffffffffffff16847f8d8381e4d0bbe80f5ac570be9ee8777b1880557d2e9b1b4711f79f2e86ebedeb8360405161274991906136b2565b60405180910390a350505050565b600033905090565b6040518060c0016040528060008152602001600073ffffffffffffffffffffffffffffffffffffffff168152602001600073ffffffffffffffffffffffffffffffffffffffff1681526020016000815260200160008152602001606081525090565b60405180606001604052806060815260200160008152602001600060028111156127ee576127ed612aef565b5b81525090565b6000819050919050565b612807816127f4565b82525050565b600060208201905061282260008301846127fe565b92915050565b6000604051905090565b600080fd5b600080fd5b600073ffffffffffffffffffffffffffffffffffffffff82169050919050565b60006128678261283c565b9050919050565b6128778161285c565b811461288257600080fd5b50565b6000813590506128948161286e565b92915050565b6128a3816127f4565b81146128ae57600080fd5b50565b6000813590506128c08161289a565b92915050565b600080604083850312156128dd576128dc612832565b5b60006128eb85828601612885565b92505060206128fc858286016128b1565b9150509250929050565b60006020828403121561291c5761291b612832565b5b600061292a848285016128b1565b91505092915050565b60006020828403121561294957612948612832565b5b600061295784828501612885565b91505092915050565b612969816127f4565b82525050565b6129788161285c565b82525050565b600081519050919050565b600082825260208201905092915050565b60005b838110156129b857808201518184015260208101905061299d565b60008484015250505050565b6000601f19601f8301169050919050565b60006129e08261297e565b6129ea8185612989565b93506129fa81856020860161299a565b612a03816129c4565b840191505092915050565b600060c083016000830151612a266000860182612960565b506020830151612a39602086018261296f565b506040830151612a4c604086018261296f565b506060830151612a5f6060860182612960565b506080830151612a726080860182612960565b5060a083015184820360a0860152612a8a82826129d5565b9150508091505092915050565b60006020820190508181036000830152612ab18184612a0e565b905092915050565b60008115159050919050565b612ace81612ab9565b82525050565b6000602082019050612ae96000830184612ac5565b92915050565b7f4e487b7100000000000000000000000000000000000000000000000000000000600052602160045260246000fd5b60038110612b2f57612b2e612aef565b5b50565b6000819050612b4082612b1e565b919050565b6000612b5082612b32565b9050919050565b612b6081612b45565b82525050565b60006060830160008301518482036000860152612b8382826129d5565b9150506020830151612b986020860182612960565b506040830151612bab6040860182612b57565b508091505092915050565b60006020820190508181036000830152612bd08184612b66565b905092915050565b600080fd5b600080fd5b7f4e487b7100000000000000000000000000000000000000000000000000000000600052604160045260246000fd5b612c1a826129c4565b810181811067ffffffffffffffff82111715612c3957612c38612be2565b5b80604052505050565b6000612c4c612828565b9050612c588282612c11565b919050565b600067ffffffffffffffff821115612c7857612c77612be2565b5b612c81826129c4565b9050602081019050919050565b82818337600083830152505050565b6000612cb0612cab84612c5d565b612c42565b905082815260208101848484011115612ccc57612ccb612bdd565b5b612cd7848285612c8e565b509392505050565b600082601f830112612cf457612cf3612bd8565b5b8135612d04848260208601612c9d565b91505092915050565b600060208284031215612d2357612d22612832565b5b600082013567ffffffffffffffff811115612d4157612d40612837565b5b612d4d84828501612cdf565b91505092915050565b60008060408385031215612d6d57612d6c612832565b5b6000612d7b85828601612885565b925050602083013567ffffffffffffffff811115612d9c57612d9b612837565b5b612da885828601612cdf565b9150509250929050565b612dbb8161285c565b82525050565b6000602082019050612dd66000830184612db2565b92915050565b60038110612de957600080fd5b50565b600081359050612dfb81612ddc565b92915050565b60008060408385031215612e1857612e17612832565b5b6000612e2685828601612885565b9250506020612e3785828601612dec565b9150509250929050565b600082825260208201905092915050565b6000612e5d8261297e565b612e678185612e41565b9350612e7781856020860161299a565b612e80816129c4565b840191505092915050565b600060c082019050612ea060008301896127fe565b612ead6020830188612db2565b612eba6040830187612db2565b612ec760608301866127fe565b612ed460808301856127fe565b81810360a0830152612ee68184612e52565b9050979650505050505050565b612efc81612b45565b82525050565b60006060820190508181036000830152612f1c8186612e52565b9050612f2b60208301856127fe565b612f386040830184612ef3565b949350505050565b7f55736572206973206e6f74206163746976652e00000000000000000000000000600082015250565b6000612f76601383612e41565b9150612f8182612f40565b602082019050919050565b60006020820190508181036000830152612fa581612f69565b9050919050565b7f6d61785472616e73616374696f6e416d6f756e74000000000000000000000000600082015250565b6000612fe2601483612e41565b9150612fed82612fac565b602082019050919050565b6000604082019050818103600083015261301181612fd5565b905061302060208301846127fe565b92915050565b7f436f6e7472616374206973207061757365640000000000000000000000000000600082015250565b600061305c601283612e41565b915061306782613026565b602082019050919050565b6000602082019050818103600083015261308b8161304f565b9050919050565b7f496e73756666696369656e742062616c616e63652e0000000000000000000000600082015250565b60006130c8601583612e41565b91506130d382613092565b602082019050919050565b600060208201905081810360008301526130f7816130bb565b9050919050565b7f4e487b7100000000000000000000000000000000000000000000000000000000600052601160045260246000fd5b6000613138826127f4565b9150613143836127f4565b925082820390508181111561315b5761315a6130fe565b5b92915050565b600081905092915050565b50565b600061317c600083613161565b91506131878261316c565b600082019050919050565b600061319d8261316f565b9150819050919050565b7f5769746864726177207472616e73666572206661696c65642e00000000000000600082015250565b60006131dd601983612e41565b91506131e8826131a7565b602082019050919050565b6000602082019050818103600083015261320c816131d0565b9050919050565b7f4e487b7100000000000000000000000000000000000000000000000000000000600052602260045260246000fd5b6000600282049050600182168061325a57607f821691505b60208210810361326d5761326c613213565b5b50919050565b7f7061757365640000000000000000000000000000000000000000000000000000600082015250565b60006132a9600683612e41565b91506132b482613273565b602082019050919050565b6000819050919050565b6000819050919050565b60006132ee6132e96132e4846132bf565b6132c9565b6127f4565b9050919050565b6132fe816132d3565b82525050565b6000604082019050818103600083015261331d8161329c565b905061332c60208301846132f5565b92915050565b7f6d696e54696d654265747765656e5472616e73616374696f6e73000000000000600082015250565b6000613368601a83612e41565b915061337382613332565b602082019050919050565b600060408201905081810360008301526133978161335b565b90506133a660208301846127fe565b92915050565b7f5573657220616c726561647920657869737473206f722069732073757370656e60008201527f6465642e00000000000000000000000000000000000000000000000000000000602082015250565b6000613408602483612e41565b9150613413826133ac565b604082019050919050565b60006020820190508181036000830152613437816133fb565b9050919050565b60008190508160005260206000209050919050565b60006020601f8301049050919050565b600082821b905092915050565b6000600883026134a07fffffffffffffffffffffffffffffffffffffffffffffffffffffffffffffffff82613463565b6134aa8683613463565b95508019841693508086168417925050509392505050565b60006134dd6134d86134d3846127f4565b6132c9565b6127f4565b9050919050565b6000819050919050565b6134f7836134c2565b61350b613503826134e4565b848454613470565b825550505050565b600090565b613520613513565b61352b8184846134ee565b505050565b5b8181101561354f57613544600082613518565b600181019050613531565b5050565b601f821115613594576135658161343e565b61356e84613453565b8101602085101561357d578190505b61359161358985613453565b830182613530565b50505b505050565b600082821c905092915050565b60006135b760001984600802613599565b1980831691505092915050565b60006135d083836135a6565b9150826002028217905092915050565b6135e98261297e565b67ffffffffffffffff81111561360257613601612be2565b5b61360c8254613242565b613617828285613553565b600060209050601f83116001811461364a5760008415613638578287015190505b61364285826135c4565b8655506136aa565b601f1984166136588661343e565b60005b828110156136805784890151825560018201915060208501945060208101905061365b565b8683101561369d5784890151613699601f8916826135a6565b8355505b6001600288020188555050505b505050505050565b600060208201905081810360008301526136cc8184612e52565b905092915050565b7f5573657220646f6573206e6f742065786973742e000000000000000000000000600082015250565b600061370a601483612e41565b9150613715826136d4565b602082019050919050565b60006020820190508181036000830152613739816136fd565b9050919050565b60006020820190506137556000830184612ef3565b92915050565b6000819050919050565b600061378061377b6137768461375b565b6132c9565b6127f4565b9050919050565b61379081613765565b82525050565b600060408201905081810360008301526137af8161329c565b90506137be6020830184613787565b92915050565b7f4465706f7369742076616c7565206d757374206265203e203000000000000000600082015250565b60006137fa601983612e41565b9150613805826137c4565b602082019050919050565b60006020820190508181036000830152613829816137ed565b9050919050565b600061383b826127f4565b9150613846836127f4565b925082820190508082111561385e5761385d6130fe565b5b92915050565b600061386f826127f4565b91507fffffffffffffffffffffffffffffffffffffffffffffffffffffffffffffffff82036138a1576138a06130fe565b5b600182019050919050565b7f4e487b7100000000000000000000000000000000000000000000000000000000600052601260045260246000fd5b60006138e6826127f4565b91506138f1836127f4565b925082613901576139006138ac565b5b82820490509291505056fe416d6f756e7420657863656564732073797374656d2068617264206c696d69742e486967682d6672657175656e6379207472616e73616374696f6e2064657465637465642ea2646970667358221220d46d9d810341aaa32bdd794d81821814d7c81535a92588afcf6519c1a069cb0b64736f6c63430008140033",
  "linkReferences": {},
  "deployedLinkReferences": {}
}